{
  "contractName": "Ownable",
  "abi": [
    {
      "inputs": [],
      "payable": false,
      "stateMutability": "nonpayable",
      "type": "constructor"
    },
    {
      "constant": true,
      "inputs": [],
      "name": "owner",
      "outputs": [
        {
          "internalType": "address",
          "name": "",
          "type": "address"
        }
      ],
      "payable": false,
      "stateMutability": "view",
      "type": "function"
    }
  ],
  "bytecode": "0x608060405234801561001057600080fd5b50336000806101000a81548173ffffffffffffffffffffffffffffffffffffffff021916908373ffffffffffffffffffffffffffffffffffffffff16021790555060cf8061005f6000396000f3fe6080604052348015600f57600080fd5b506004361060285760003560e01c80638da5cb5b14602d575b600080fd5b60336075565b604051808273ffffffffffffffffffffffffffffffffffffffff1673ffffffffffffffffffffffffffffffffffffffff16815260200191505060405180910390f35b6000809054906101000a900473ffffffffffffffffffffffffffffffffffffffff168156fea265627a7a72315820aaa8c9c76b8604cdc90e602f52776b62e163f0488a385d2dade5472c8a79e52964736f6c63430005100032",
  "source": "pragma solidity ^0.5.16;\r\n\r\ncontract Ownable{\r\n    address public owner;\r\n    constructor() public{\r\n\r\n        owner = msg.sender;\r\n\r\n    }\r\n\r\n    modifier onlyOwner(){\r\n        require(msg.sender==owner);\r\n        _;\r\n    }\r\n\r\n}",
  "sourcePath": "D:\\Users\\cheta\\Desktop\\Dapps_RS\\ERC721\\token\\contracts\\Ownable.sol",
  "compiler": {
    "name": "solc",
    "version": "0.5.16+commit.9c3226ce.Emscripten.clang"
  },
  "schemaVersion": "3.4.2",
  "updatedAt": "2022-01-25T20:11:21.203Z",
  "devdoc": {
    "methods": {}
  },
  "userdoc": {
    "methods": {}
  }
}