{
  "_format": "hh-sol-artifact-1",
  "contractName": "NFT",
  "sourceName": "contracts/NFT.sol",
  "abi": [
    {
      "inputs": [],
      "stateMutability": "nonpayable",
      "type": "constructor"
    },
    {
      "anonymous": false,
      "inputs": [
        {
          "indexed": true,
          "internalType": "address",
          "name": "owner",
          "type": "address"
        },
        {
          "indexed": true,
          "internalType": "address",
          "name": "approved",
          "type": "address"
        },
        {
          "indexed": true,
          "internalType": "uint256",
          "name": "tokenId",
          "type": "uint256"
        }
      ],
      "name": "Approval",
      "type": "event"
    },
    {
      "anonymous": false,
      "inputs": [
        {
          "indexed": true,
          "internalType": "address",
          "name": "owner",
          "type": "address"
        },
        {
          "indexed": true,
          "internalType": "address",
          "name": "operator",
          "type": "address"
        },
        {
          "indexed": false,
          "internalType": "bool",
          "name": "approved",
          "type": "bool"
        }
      ],
      "name": "ApprovalForAll",
      "type": "event"
    },
    {
      "anonymous": false,
      "inputs": [
        {
          "indexed": true,
          "internalType": "address",
          "name": "from",
          "type": "address"
        },
        {
          "indexed": true,
          "internalType": "address",
          "name": "to",
          "type": "address"
        },
        {
          "indexed": true,
          "internalType": "uint256",
          "name": "tokenId",
          "type": "uint256"
        }
      ],
      "name": "Transfer",
      "type": "event"
    },
    {
      "inputs": [
        {
          "internalType": "address",
          "name": "to",
          "type": "address"
        },
        {
          "internalType": "uint256",
          "name": "tokenId",
          "type": "uint256"
        }
      ],
      "name": "approve",
      "outputs": [],
      "stateMutability": "nonpayable",
      "type": "function"
    },
    {
      "inputs": [
        {
          "internalType": "address",
          "name": "owner",
          "type": "address"
        }
      ],
      "name": "balanceOf",
      "outputs": [
        {
          "internalType": "uint256",
          "name": "",
          "type": "uint256"
        }
      ],
      "stateMutability": "view",
      "type": "function"
    },
    {
      "inputs": [],
      "name": "baseTokenURI",
      "outputs": [
        {
          "internalType": "string",
          "name": "",
          "type": "string"
        }
      ],
      "stateMutability": "view",
      "type": "function"
    },
    {
      "inputs": [
        {
          "internalType": "uint256",
          "name": "tokenId",
          "type": "uint256"
        }
      ],
      "name": "getApproved",
      "outputs": [
        {
          "internalType": "address",
          "name": "",
          "type": "address"
        }
      ],
      "stateMutability": "view",
      "type": "function"
    },
    {
      "inputs": [
        {
          "internalType": "address",
          "name": "owner",
          "type": "address"
        },
        {
          "internalType": "address",
          "name": "operator",
          "type": "address"
        }
      ],
      "name": "isApprovedForAll",
      "outputs": [
        {
          "internalType": "bool",
          "name": "",
          "type": "bool"
        }
      ],
      "stateMutability": "view",
      "type": "function"
    },
    {
      "inputs": [
        {
          "internalType": "address",
          "name": "recipient",
          "type": "address"
        }
      ],
      "name": "mintTo",
      "outputs": [
        {
          "internalType": "uint256",
          "name": "",
          "type": "uint256"
        }
      ],
      "stateMutability": "nonpayable",
      "type": "function"
    },
    {
      "inputs": [],
      "name": "name",
      "outputs": [
        {
          "internalType": "string",
          "name": "",
          "type": "string"
        }
      ],
      "stateMutability": "view",
      "type": "function"
    },
    {
      "inputs": [
        {
          "internalType": "uint256",
          "name": "tokenId",
          "type": "uint256"
        }
      ],
      "name": "ownerOf",
      "outputs": [
        {
          "internalType": "address",
          "name": "",
          "type": "address"
        }
      ],
      "stateMutability": "view",
      "type": "function"
    },
    {
      "inputs": [
        {
          "internalType": "address",
          "name": "from",
          "type": "address"
        },
        {
          "internalType": "address",
          "name": "to",
          "type": "address"
        },
        {
          "internalType": "uint256",
          "name": "tokenId",
          "type": "uint256"
        }
      ],
      "name": "safeTransferFrom",
      "outputs": [],
      "stateMutability": "nonpayable",
      "type": "function"
    },
    {
      "inputs": [
        {
          "internalType": "address",
          "name": "from",
          "type": "address"
        },
        {
          "internalType": "address",
          "name": "to",
          "type": "address"
        },
        {
          "internalType": "uint256",
          "name": "tokenId",
          "type": "uint256"
        },
        {
          "internalType": "bytes",
          "name": "_data",
          "type": "bytes"
        }
      ],
      "name": "safeTransferFrom",
      "outputs": [],
      "stateMutability": "nonpayable",
      "type": "function"
    },
    {
      "inputs": [
        {
          "internalType": "address",
          "name": "operator",
          "type": "address"
        },
        {
          "internalType": "bool",
          "name": "approved",
          "type": "bool"
        }
      ],
      "name": "setApprovalForAll",
      "outputs": [],
      "stateMutability": "nonpayable",
      "type": "function"
    },
    {
      "inputs": [
        {
          "internalType": "string",
          "name": "_baseTokenURI",
          "type": "string"
        }
      ],
      "name": "setBaseTokenURI",
      "outputs": [],
      "stateMutability": "nonpayable",
      "type": "function"
    },
    {
      "inputs": [
        {
          "internalType": "bytes4",
          "name": "interfaceId",
          "type": "bytes4"
        }
      ],
      "name": "supportsInterface",
      "outputs": [
        {
          "internalType": "bool",
          "name": "",
          "type": "bool"
        }
      ],
      "stateMutability": "view",
      "type": "function"
    },
    {
      "inputs": [],
      "name": "symbol",
      "outputs": [
        {
          "internalType": "string",
          "name": "",
          "type": "string"
        }
      ],
      "stateMutability": "view",
      "type": "function"
    },
    {
      "inputs": [
        {
          "internalType": "uint256",
          "name": "tokenId",
          "type": "uint256"
        }
      ],
      "name": "tokenURI",
      "outputs": [
        {
          "internalType": "string",
          "name": "",
          "type": "string"
        }
      ],
      "stateMutability": "view",
      "type": "function"
    },
    {
      "inputs": [
        {
          "internalType": "address",
          "name": "from",
          "type": "address"
        },
        {
          "internalType": "address",
          "name": "to",
          "type": "address"
        },
        {
          "internalType": "uint256",
          "name": "tokenId",
          "type": "uint256"
        }
      ],
      "name": "transferFrom",
      "outputs": [],
      "stateMutability": "nonpayable",
      "type": "function"
    }
  ],
  "bytecode": "0x60806040523480156200001157600080fd5b506040518060400160405280600b81526020017f4e46545475746f7269616c0000000000000000000000000000000000000000008152506040518060400160405280600381526020017f4e46540000000000000000000000000000000000000000000000000000000000815250816000908051906020019062000096929190620000e0565b508060019080519060200190620000af929190620000e0565b5050506040518060200160405280600081525060079080519060200190620000d9929190620000e0565b50620001f5565b828054620000ee90620001bf565b90600052602060002090601f0160209004810192826200011257600085556200015e565b82601f106200012d57805160ff19168380011785556200015e565b828001600101855582156200015e579182015b828111156200015d57825182559160200191906001019062000140565b5b5090506200016d919062000171565b5090565b5b808211156200018c57600081600090555060010162000172565b5090565b7f4e487b7100000000000000000000000000000000000000000000000000000000600052602260045260246000fd5b60006002820490506001821680620001d857607f821691505b60208210811415620001ef57620001ee62000190565b5b50919050565b612aa680620002056000396000f3fe608060405234801561001057600080fd5b50600436106101005760003560e01c806370a0823111610097578063b88d4fde11610066578063b88d4fde146102bd578063c87b56dd146102d9578063d547cfb714610309578063e985e9c51461032757610100565b806370a0823114610223578063755edd171461025357806395d89b4114610283578063a22cb465146102a157610100565b806323b872dd116100d357806323b872dd1461019f57806330176e13146101bb57806342842e0e146101d75780636352211e146101f357610100565b806301ffc9a71461010557806306fdde0314610135578063081812fc14610153578063095ea7b314610183575b600080fd5b61011f600480360381019061011a919061193f565b610357565b60405161012c9190611987565b60405180910390f35b61013d610439565b60405161014a9190611a3b565b60405180910390f35b61016d60048036038101906101689190611a93565b6104cb565b60405161017a9190611b01565b60405180910390f35b61019d60048036038101906101989190611b48565b610550565b005b6101b960048036038101906101b49190611b88565b610668565b005b6101d560048036038101906101d09190611d10565b6106c8565b005b6101f160048036038101906101ec9190611b88565b6106e2565b005b61020d60048036038101906102089190611a93565b610702565b60405161021a9190611b01565b60405180910390f35b61023d60048036038101906102389190611d59565b6107b4565b60405161024a9190611d95565b60405180910390f35b61026d60048036038101906102689190611d59565b61086c565b60405161027a9190611d95565b60405180910390f35b61028b610899565b6040516102989190611a3b565b60405180910390f35b6102bb60048036038101906102b69190611ddc565b61092b565b005b6102d760048036038101906102d29190611ebd565b610941565b005b6102f360048036038101906102ee9190611a93565b6109a3565b6040516103009190611a3b565b60405180910390f35b610311610a4a565b60405161031e9190611a3b565b60405180910390f35b610341600480360381019061033c9190611f40565b610ad8565b60405161034e9190611987565b60405180910390f35b60007f80ac58cd000000000000000000000000000000000000000000000000000000007bffffffffffffffffffffffffffffffffffffffffffffffffffffffff1916827bffffffffffffffffffffffffffffffffffffffffffffffffffffffff1916148061042257507f5b5e139f000000000000000000000000000000000000000000000000000000007bffffffffffffffffffffffffffffffffffffffffffffffffffffffff1916827bffffffffffffffffffffffffffffffffffffffffffffffffffffffff1916145b80610432575061043182610b6c565b5b9050919050565b60606000805461044890611faf565b80601f016020809104026020016040519081016040528092919081815260200182805461047490611faf565b80156104c15780601f10610496576101008083540402835291602001916104c1565b820191906000526020600020905b8154815290600101906020018083116104a457829003601f168201915b5050505050905090565b60006104d682610bd6565b610515576040517f08c379a000000000000000000000000000000000000000000000000000000000815260040161050c90612053565b60405180910390fd5b6004600083815260200190815260200160002060009054906101000a900473ffffffffffffffffffffffffffffffffffffffff169050919050565b600061055b82610702565b90508073ffffffffffffffffffffffffffffffffffffffff168373ffffffffffffffffffffffffffffffffffffffff1614156105cc576040517f08c379a00000000000000000000000000000000000000000000000000000000081526004016105c3906120e5565b60405180910390fd5b8073ffffffffffffffffffffffffffffffffffffffff166105eb610c42565b73ffffffffffffffffffffffffffffffffffffffff16148061061a575061061981610614610c42565b610ad8565b5b610659576040517f08c379a000000000000000000000000000000000000000000000000000000000815260040161065090612177565b60405180910390fd5b6106638383610c4a565b505050565b610679610673610c42565b82610d03565b6106b8576040517f08c379a00000000000000000000000000000000000000000000000000000000081526004016106af90612209565b60405180910390fd5b6106c3838383610de1565b505050565b80600790805190602001906106de929190611830565b5050565b6106fd83838360405180602001604052806000815250610941565b505050565b6000806002600084815260200190815260200160002060009054906101000a900473ffffffffffffffffffffffffffffffffffffffff169050600073ffffffffffffffffffffffffffffffffffffffff168173ffffffffffffffffffffffffffffffffffffffff1614156107ab576040517f08c379a00000000000000000000000000000000000000000000000000000000081526004016107a29061229b565b60405180910390fd5b80915050919050565b60008073ffffffffffffffffffffffffffffffffffffffff168273ffffffffffffffffffffffffffffffffffffffff161415610825576040517f08c379a000000000000000000000000000000000000000000000000000000000815260040161081c9061232d565b60405180910390fd5b600360008373ffffffffffffffffffffffffffffffffffffffff1673ffffffffffffffffffffffffffffffffffffffff168152602001908152602001600020549050919050565b60006108786006611048565b6000610884600661105e565b9050610890838261106c565b80915050919050565b6060600180546108a890611faf565b80601f01602080910402602001604051908101604052809291908181526020018280546108d490611faf565b80156109215780601f106108f657610100808354040283529160200191610921565b820191906000526020600020905b81548152906001019060200180831161090457829003601f168201915b5050505050905090565b61093d610936610c42565b838361108a565b5050565b61095261094c610c42565b83610d03565b610991576040517f08c379a000000000000000000000000000000000000000000000000000000000815260040161098890612209565b60405180910390fd5b61099d848484846111f7565b50505050565b60606109ae82610bd6565b6109ed576040517f08c379a00000000000000000000000000000000000000000000000000000000081526004016109e4906123bf565b60405180910390fd5b60006109f7611253565b90506000815111610a175760405180602001604052806000815250610a42565b80610a21846112e5565b604051602001610a3292919061241b565b6040516020818303038152906040525b915050919050565b60078054610a5790611faf565b80601f0160208091040260200160405190810160405280929190818152602001828054610a8390611faf565b8015610ad05780601f10610aa557610100808354040283529160200191610ad0565b820191906000526020600020905b815481529060010190602001808311610ab357829003601f168201915b505050505081565b6000600560008473ffffffffffffffffffffffffffffffffffffffff1673ffffffffffffffffffffffffffffffffffffffff16815260200190815260200160002060008373ffffffffffffffffffffffffffffffffffffffff1673ffffffffffffffffffffffffffffffffffffffff16815260200190815260200160002060009054906101000a900460ff16905092915050565b60007f01ffc9a7000000000000000000000000000000000000000000000000000000007bffffffffffffffffffffffffffffffffffffffffffffffffffffffff1916827bffffffffffffffffffffffffffffffffffffffffffffffffffffffff1916149050919050565b60008073ffffffffffffffffffffffffffffffffffffffff166002600084815260200190815260200160002060009054906101000a900473ffffffffffffffffffffffffffffffffffffffff1673ffffffffffffffffffffffffffffffffffffffff1614159050919050565b600033905090565b816004600083815260200190815260200160002060006101000a81548173ffffffffffffffffffffffffffffffffffffffff021916908373ffffffffffffffffffffffffffffffffffffffff160217905550808273ffffffffffffffffffffffffffffffffffffffff16610cbd83610702565b73ffffffffffffffffffffffffffffffffffffffff167f8c5be1e5ebec7d5bd14f71427d1e84f3dd0314c0f7b2291e5b200ac8c7c3b92560405160405180910390a45050565b6000610d0e82610bd6565b610d4d576040517f08c379a0000000000000000000000000000000000000000000000000000000008152600401610d44906124b1565b60405180910390fd5b6000610d5883610702565b90508073ffffffffffffffffffffffffffffffffffffffff168473ffffffffffffffffffffffffffffffffffffffff161480610dc757508373ffffffffffffffffffffffffffffffffffffffff16610daf846104cb565b73ffffffffffffffffffffffffffffffffffffffff16145b80610dd85750610dd78185610ad8565b5b91505092915050565b8273ffffffffffffffffffffffffffffffffffffffff16610e0182610702565b73ffffffffffffffffffffffffffffffffffffffff1614610e57576040517f08c379a0000000000000000000000000000000000000000000000000000000008152600401610e4e90612543565b60405180910390fd5b600073ffffffffffffffffffffffffffffffffffffffff168273ffffffffffffffffffffffffffffffffffffffff161415610ec7576040517f08c379a0000000000000000000000000000000000000000000000000000000008152600401610ebe906125d5565b60405180910390fd5b610ed2838383611446565b610edd600082610c4a565b6001600360008573ffffffffffffffffffffffffffffffffffffffff1673ffffffffffffffffffffffffffffffffffffffff1681526020019081526020016000206000828254610f2d9190612624565b925050819055506001600360008473ffffffffffffffffffffffffffffffffffffffff1673ffffffffffffffffffffffffffffffffffffffff1681526020019081526020016000206000828254610f849190612658565b92505081905550816002600083815260200190815260200160002060006101000a81548173ffffffffffffffffffffffffffffffffffffffff021916908373ffffffffffffffffffffffffffffffffffffffff160217905550808273ffffffffffffffffffffffffffffffffffffffff168473ffffffffffffffffffffffffffffffffffffffff167fddf252ad1be2c89b69c2b068fc378daa952ba7f163c4a11628f55a4df523b3ef60405160405180910390a461104383838361144b565b505050565b6001816000016000828254019250508190555050565b600081600001549050919050565b611086828260405180602001604052806000815250611450565b5050565b8173ffffffffffffffffffffffffffffffffffffffff168373ffffffffffffffffffffffffffffffffffffffff1614156110f9576040517f08c379a00000000000000000000000000000000000000000000000000000000081526004016110f0906126fa565b60405180910390fd5b80600560008573ffffffffffffffffffffffffffffffffffffffff1673ffffffffffffffffffffffffffffffffffffffff16815260200190815260200160002060008473ffffffffffffffffffffffffffffffffffffffff1673ffffffffffffffffffffffffffffffffffffffff16815260200190815260200160002060006101000a81548160ff0219169083151502179055508173ffffffffffffffffffffffffffffffffffffffff168373ffffffffffffffffffffffffffffffffffffffff167f17307eab39ab6107e8899845ad3d59bd9653f200f220920489ca2b5937696c31836040516111ea9190611987565b60405180910390a3505050565b611202848484610de1565b61120e848484846114ab565b61124d576040517f08c379a00000000000000000000000000000000000000000000000000000000081526004016112449061278c565b60405180910390fd5b50505050565b60606007805461126290611faf565b80601f016020809104026020016040519081016040528092919081815260200182805461128e90611faf565b80156112db5780601f106112b0576101008083540402835291602001916112db565b820191906000526020600020905b8154815290600101906020018083116112be57829003601f168201915b5050505050905090565b6060600082141561132d576040518060400160405280600181526020017f30000000000000000000000000000000000000000000000000000000000000008152509050611441565b600082905060005b6000821461135f578080611348906127ac565b915050600a826113589190612824565b9150611335565b60008167ffffffffffffffff81111561137b5761137a611be5565b5b6040519080825280601f01601f1916602001820160405280156113ad5781602001600182028036833780820191505090505b5090505b6000851461143a576001826113c69190612624565b9150600a856113d59190612855565b60306113e19190612658565b60f81b8183815181106113f7576113f6612886565b5b60200101907effffffffffffffffffffffffffffffffffffffffffffffffffffffffffffff1916908160001a905350600a856114339190612824565b94506113b1565b8093505050505b919050565b505050565b505050565b61145a8383611633565b61146760008484846114ab565b6114a6576040517f08c379a000000000000000000000000000000000000000000000000000000000815260040161149d9061278c565b60405180910390fd5b505050565b60006114cc8473ffffffffffffffffffffffffffffffffffffffff1661180d565b15611626578373ffffffffffffffffffffffffffffffffffffffff1663150b7a026114f5610c42565b8786866040518563ffffffff1660e01b8152600401611517949392919061290a565b6020604051808303816000875af192505050801561155357506040513d601f19601f82011682018060405250810190611550919061296b565b60015b6115d6573d8060008114611583576040519150601f19603f3d011682016040523d82523d6000602084013e611588565b606091505b506000815114156115ce576040517f08c379a00000000000000000000000000000000000000000000000000000000081526004016115c59061278c565b60405180910390fd5b805181602001fd5b63150b7a0260e01b7bffffffffffffffffffffffffffffffffffffffffffffffffffffffff1916817bffffffffffffffffffffffffffffffffffffffffffffffffffffffff19161491505061162b565b600190505b949350505050565b600073ffffffffffffffffffffffffffffffffffffffff168273ffffffffffffffffffffffffffffffffffffffff1614156116a3576040517f08c379a000000000000000000000000000000000000000000000000000000000815260040161169a906129e4565b60405180910390fd5b6116ac81610bd6565b156116ec576040517f08c379a00000000000000000000000000000000000000000000000000000000081526004016116e390612a50565b60405180910390fd5b6116f860008383611446565b6001600360008473ffffffffffffffffffffffffffffffffffffffff1673ffffffffffffffffffffffffffffffffffffffff16815260200190815260200160002060008282546117489190612658565b92505081905550816002600083815260200190815260200160002060006101000a81548173ffffffffffffffffffffffffffffffffffffffff021916908373ffffffffffffffffffffffffffffffffffffffff160217905550808273ffffffffffffffffffffffffffffffffffffffff16600073ffffffffffffffffffffffffffffffffffffffff167fddf252ad1be2c89b69c2b068fc378daa952ba7f163c4a11628f55a4df523b3ef60405160405180910390a46118096000838361144b565b5050565b6000808273ffffffffffffffffffffffffffffffffffffffff163b119050919050565b82805461183c90611faf565b90600052602060002090601f01602090048101928261185e57600085556118a5565b82601f1061187757805160ff19168380011785556118a5565b828001600101855582156118a5579182015b828111156118a4578251825591602001919060010190611889565b5b5090506118b291906118b6565b5090565b5b808211156118cf5760008160009055506001016118b7565b5090565b6000604051905090565b600080fd5b600080fd5b60007fffffffff0000000000000000000000000000000000000000000000000000000082169050919050565b61191c816118e7565b811461192757600080fd5b50565b60008135905061193981611913565b92915050565b600060208284031215611955576119546118dd565b5b60006119638482850161192a565b91505092915050565b60008115159050919050565b6119818161196c565b82525050565b600060208201905061199c6000830184611978565b92915050565b600081519050919050565b600082825260208201905092915050565b60005b838110156119dc5780820151818401526020810190506119c1565b838111156119eb576000848401525b50505050565b6000601f19601f8301169050919050565b6000611a0d826119a2565b611a1781856119ad565b9350611a278185602086016119be565b611a30816119f1565b840191505092915050565b60006020820190508181036000830152611a558184611a02565b905092915050565b6000819050919050565b611a7081611a5d565b8114611a7b57600080fd5b50565b600081359050611a8d81611a67565b92915050565b600060208284031215611aa957611aa86118dd565b5b6000611ab784828501611a7e565b91505092915050565b600073ffffffffffffffffffffffffffffffffffffffff82169050919050565b6000611aeb82611ac0565b9050919050565b611afb81611ae0565b82525050565b6000602082019050611b166000830184611af2565b92915050565b611b2581611ae0565b8114611b3057600080fd5b50565b600081359050611b4281611b1c565b92915050565b60008060408385031215611b5f57611b5e6118dd565b5b6000611b6d85828601611b33565b9250506020611b7e85828601611a7e565b9150509250929050565b600080600060608486031215611ba157611ba06118dd565b5b6000611baf86828701611b33565b9350506020611bc086828701611b33565b9250506040611bd186828701611a7e565b9150509250925092565b600080fd5b600080fd5b7f4e487b7100000000000000000000000000000000000000000000000000000000600052604160045260246000fd5b611c1d826119f1565b810181811067ffffffffffffffff82111715611c3c57611c3b611be5565b5b80604052505050565b6000611c4f6118d3565b9050611c5b8282611c14565b919050565b600067ffffffffffffffff821115611c7b57611c7a611be5565b5b611c84826119f1565b9050602081019050919050565b82818337600083830152505050565b6000611cb3611cae84611c60565b611c45565b905082815260208101848484011115611ccf57611cce611be0565b5b611cda848285611c91565b509392505050565b600082601f830112611cf757611cf6611bdb565b5b8135611d07848260208601611ca0565b91505092915050565b600060208284031215611d2657611d256118dd565b5b600082013567ffffffffffffffff811115611d4457611d436118e2565b5b611d5084828501611ce2565b91505092915050565b600060208284031215611d6f57611d6e6118dd565b5b6000611d7d84828501611b33565b91505092915050565b611d8f81611a5d565b82525050565b6000602082019050611daa6000830184611d86565b92915050565b611db98161196c565b8114611dc457600080fd5b50565b600081359050611dd681611db0565b92915050565b60008060408385031215611df357611df26118dd565b5b6000611e0185828601611b33565b9250506020611e1285828601611dc7565b9150509250929050565b600067ffffffffffffffff821115611e3757611e36611be5565b5b611e40826119f1565b9050602081019050919050565b6000611e60611e5b84611e1c565b611c45565b905082815260208101848484011115611e7c57611e7b611be0565b5b611e87848285611c91565b509392505050565b600082601f830112611ea457611ea3611bdb565b5b8135611eb4848260208601611e4d565b91505092915050565b60008060008060808587031215611ed757611ed66118dd565b5b6000611ee587828801611b33565b9450506020611ef687828801611b33565b9350506040611f0787828801611a7e565b925050606085013567ffffffffffffffff811115611f2857611f276118e2565b5b611f3487828801611e8f565b91505092959194509250565b60008060408385031215611f5757611f566118dd565b5b6000611f6585828601611b33565b9250506020611f7685828601611b33565b9150509250929050565b7f4e487b7100000000000000000000000000000000000000000000000000000000600052602260045260246000fd5b60006002820490506001821680611fc757607f821691505b60208210811415611fdb57611fda611f80565b5b50919050565b7f4552433732313a20617070726f76656420717565727920666f72206e6f6e657860008201527f697374656e7420746f6b656e0000000000000000000000000000000000000000602082015250565b600061203d602c836119ad565b915061204882611fe1565b604082019050919050565b6000602082019050818103600083015261206c81612030565b9050919050565b7f4552433732313a20617070726f76616c20746f2063757272656e74206f776e6560008201527f7200000000000000000000000000000000000000000000000000000000000000602082015250565b60006120cf6021836119ad565b91506120da82612073565b604082019050919050565b600060208201905081810360008301526120fe816120c2565b9050919050565b7f4552433732313a20617070726f76652063616c6c6572206973206e6f74206f7760008201527f6e6572206e6f7220617070726f76656420666f7220616c6c0000000000000000602082015250565b60006121616038836119ad565b915061216c82612105565b604082019050919050565b6000602082019050818103600083015261219081612154565b9050919050565b7f4552433732313a207472616e736665722063616c6c6572206973206e6f74206f60008201527f776e6572206e6f7220617070726f766564000000000000000000000000000000602082015250565b60006121f36031836119ad565b91506121fe82612197565b604082019050919050565b60006020820190508181036000830152612222816121e6565b9050919050565b7f4552433732313a206f776e657220717565727920666f72206e6f6e657869737460008201527f656e7420746f6b656e0000000000000000000000000000000000000000000000602082015250565b60006122856029836119ad565b915061229082612229565b604082019050919050565b600060208201905081810360008301526122b481612278565b9050919050565b7f4552433732313a2062616c616e636520717565727920666f7220746865207a6560008201527f726f206164647265737300000000000000000000000000000000000000000000602082015250565b6000612317602a836119ad565b9150612322826122bb565b604082019050919050565b600060208201905081810360008301526123468161230a565b9050919050565b7f4552433732314d657461646174613a2055524920717565727920666f72206e6f60008201527f6e6578697374656e7420746f6b656e0000000000000000000000000000000000602082015250565b60006123a9602f836119ad565b91506123b48261234d565b604082019050919050565b600060208201905081810360008301526123d88161239c565b9050919050565b600081905092915050565b60006123f5826119a2565b6123ff81856123df565b935061240f8185602086016119be565b80840191505092915050565b600061242782856123ea565b915061243382846123ea565b91508190509392505050565b7f4552433732313a206f70657261746f7220717565727920666f72206e6f6e657860008201527f697374656e7420746f6b656e0000000000000000000000000000000000000000602082015250565b600061249b602c836119ad565b91506124a68261243f565b604082019050919050565b600060208201905081810360008301526124ca8161248e565b9050919050565b7f4552433732313a207472616e736665722066726f6d20696e636f72726563742060008201527f6f776e6572000000000000000000000000000000000000000000000000000000602082015250565b600061252d6025836119ad565b9150612538826124d1565b604082019050919050565b6000602082019050818103600083015261255c81612520565b9050919050565b7f4552433732313a207472616e7366657220746f20746865207a65726f2061646460008201527f7265737300000000000000000000000000000000000000000000000000000000602082015250565b60006125bf6024836119ad565b91506125ca82612563565b604082019050919050565b600060208201905081810360008301526125ee816125b2565b9050919050565b7f4e487b7100000000000000000000000000000000000000000000000000000000600052601160045260246000fd5b600061262f82611a5d565b915061263a83611a5d565b92508282101561264d5761264c6125f5565b5b828203905092915050565b600061266382611a5d565b915061266e83611a5d565b9250827fffffffffffffffffffffffffffffffffffffffffffffffffffffffffffffffff038211156126a3576126a26125f5565b5b828201905092915050565b7f4552433732313a20617070726f766520746f2063616c6c657200000000000000600082015250565b60006126e46019836119ad565b91506126ef826126ae565b602082019050919050565b60006020820190508181036000830152612713816126d7565b9050919050565b7f4552433732313a207472616e7366657220746f206e6f6e20455243373231526560008201527f63656976657220696d706c656d656e7465720000000000000000000000000000602082015250565b60006127766032836119ad565b91506127818261271a565b604082019050919050565b600060208201905081810360008301526127a581612769565b9050919050565b60006127b782611a5d565b91507fffffffffffffffffffffffffffffffffffffffffffffffffffffffffffffffff8214156127ea576127e96125f5565b5b600182019050919050565b7f4e487b7100000000000000000000000000000000000000000000000000000000600052601260045260246000fd5b600061282f82611a5d565b915061283a83611a5d565b92508261284a576128496127f5565b5b828204905092915050565b600061286082611a5d565b915061286b83611a5d565b92508261287b5761287a6127f5565b5b828206905092915050565b7f4e487b7100000000000000000000000000000000000000000000000000000000600052603260045260246000fd5b600081519050919050565b600082825260208201905092915050565b60006128dc826128b5565b6128e681856128c0565b93506128f68185602086016119be565b6128ff816119f1565b840191505092915050565b600060808201905061291f6000830187611af2565b61292c6020830186611af2565b6129396040830185611d86565b818103606083015261294b81846128d1565b905095945050505050565b60008151905061296581611913565b92915050565b600060208284031215612981576129806118dd565b5b600061298f84828501612956565b91505092915050565b7f4552433732313a206d696e7420746f20746865207a65726f2061646472657373600082015250565b60006129ce6020836119ad565b91506129d982612998565b602082019050919050565b600060208201905081810360008301526129fd816129c1565b9050919050565b7f4552433732313a20746f6b656e20616c7265616479206d696e74656400000000600082015250565b6000612a3a601c836119ad565b9150612a4582612a04565b602082019050919050565b60006020820190508181036000830152612a6981612a2d565b905091905056fea26469706673582212203623576dda213a2ab7c72e5b686b72dd3b5d5c2928b13a86df539f7fffa6535a64736f6c634300080b0033",
  "linkReferences": {},
  "deployedLinkReferences": {}
}